:020000040800F2
:1000000010060020AD010008B5010008B701000886
:10001000B9010008BB010008BD0100080000000094
:10002000000000000000000000000000BF01000808
:10003000C101000800000000C30100080D12000803
:10004000C7010008C7010008C7010008C701000870
:10005000C7010008C7010008C7010008C701000860
:10006000C7010008C7010008C7010008C701000850
:10007000C7010008C7010008C7010008C701000840
:10008000C7010008C7010008C70100080000000000
:10009000000000000000000000000000C701000890
:1000A000C7010008C7010008C7010008C701000810
:1000B000C7010008C7010008C7010008C701000800
:1000C000C7010008C7010008C7010008C7010008F0
:1000D000C7010008C7010008C701000800000000B0
:1000E000C7010008C7010008C701000800000000A0
:1000F000000000000000000000000000C701000830
:1001000000000000C7010008C7010008C70100087F
:1001100000000000000000000000000000000000DF
:10012000C7010008C7010008C7010008C70100088F
:10013000C7010008000000000000000000000000EF
:10014000000000000000000000000000C7010008DF
:10015000C7010008C7010008C7010008C70100085F
:10016000C7010008C70100080000000000000000EF
:10017000000000000000000000000000000000007F
:1001800000000000C701000800000000000000009F
:10019000C7010008C7010008DFF80CD000F08CF898
:1001A00000480047351A000810060020064880471E
:1001B00006480047FEE7FEE7FEE7FEE7FEE7FEE74C
:1001C000FEE7FEE7FEE7FEE7BD1200089901000822
:1001D0002DE9F05F0546002092469B46884606467C
:1001E000814640241BE0284641464746224600F00F
:1001F00053F853465A46C01A914110D31146184637
:10020000224600F03AF82D1A67EB01084F462246C5
:100210000120002100F031F817EB00094E41201EAB
:10022000A4F10104DFDC484631462A464346BDE8D6
:10023000F09F40EA01039B0703D009E008C9121FA1
:1002400008C0042AFAD203E011F8013B00F8013B90
:10025000521EF9D27047D2B201E000F8012B491EBC
:10026000FBD270470022F6E710B513460A46044653
:100270001946FFF7F0FF204610BD202A04DB203A84
:1002800000FA02F1002070479140C2F1200320FAE9
:1002900003F3194390407047202A04DB203A21FAE7
:1002A00002F00021704721FA02F3D040C2F120028F
:1002B0009140084319467047064C074D06E0E06838
:1002C00040F0010394E8070098471034AC42F6D39D
:1002D000FFF766FFDC1A0008FC1A0008002229B1AB
:1002E00001291AD002291BD04FF440720E490B6825
:1002F00023F440730B600B6813430B600A6822F011
:10030000F8020A600A68022303EBC00002430A6095
:10031000086840F48030086070474FF48072E5E769
:100320004FF40072E2E70000103C024013480168FD
:1003300089050FD5016821F400710160016841F45D
:1003400000610160016821F400610160016841F40D
:1003500000710160016849050FD5016821F48061D1
:100360000160016841F480510160016821F480510D
:100370000160016841F4806101607047003C024007
:1003800008490A6822F440720A600A6842F00402CE
:100390000A600A684FF4803343EA002002430A608F
:1003A00070470000103C02401C490868C2061C4807
:1003B00005D5C26942F01002C26110220A600A68C3
:1003C000920605D5C26942F00802C26120220A6085
:1003D0000A68520605D5C26942F00402C261402291
:1003E0000A600A68120605D5C26942F00202C261BB
:1003F00080220A600A68D20506D5C26942F001026D
:10040000C2614FF480720A600A68920705D5C2691A
:1004100042F02002C2610220086070470C3C02409A
:10042000F001002070B5114904460020C86100F0B9
:1004300087F906460E4D09E0601C07D024B100F094
:100440007FF9801BA04201D9032070BD2868C0033A
:10045000F2D42868C00701D001202860286810F471
:10046000F970F2D0FFF7A0FF012070BDF00100206D
:100470000C3C024010B5040002D0607910B106E0D7
:10048000012010BD00202071204600F007F8022056
:10049000607101206071002010BD000008B5006887
:1004A0000649884208D10648016841F4805101603C
:1004B000006800F48050009008BD00000030024049
:1004C000303802402DE9F047044622480F46017EAD
:1004D00001290AD00121804601764CF25039484664
:1004E000FFF7A0FF020003D02FE00220BDE8F08755
:1004F0004FF0FF3038602068174D012801D0A66802
:100500001CE0207C6168FFF73BFF4846FFF78AFF4D
:100510000246286820F00400286014E0217C304660
:10052000FFF7DCFE4846FFF77DFF0200286820F059
:10053000FA00286001D03E6005E0761CD4E9021084
:100540000844B042EAD8FFF7F1FE002188F81810FD
:100550001046CBE7F0010020103C02400348016840
:1005600041F000410160002070470000103C024053
:10057000074900200A68002A09DA054A054B0C3AA7
:100580001360054B13600968002900DA01207047E9
:10059000103C024023016745AB89EFCD2DE9F84FB0
:1005A000DFF860B100224FF001084FF0030A4FF06E
:1005B0000F090BF1040E00BF0B6808FA02F4234088
:1005C000A3426ED14D68022D01D0122D0ED1D50857
:1005D00000EB850CDCF820505607F70E09FA07F6F9
:1005E000B5430E69BE402E43CCF820600668550026
:1005F0000F790AFA05FC07F0030726EA0C06AF405C
:10060000374307604E68012E05D0022E03D0112E0D
:1006100001D0122E0ED18668CF6826EA0C06AF40B4
:10062000374387604668A6430C79C4F300149440AE
:1006300034434460C6688C6826EA0C06AC403443F8
:10064000C4604C68E40056D52F4C256845F48045BD
:100650002560246822F0030504F4804400942B4CA8
:100660002E19D6F8084895072F0F09FA07F5AC435D
:10067000274DA84201D1002515E0264DA84201D101
:10068000012510E0244DA84201D102250BE0234DA5
:10069000A84201D1032506E0214DA84202D104253C
:1006A00001E028E00725BD402543C6F80858DBF8DF
:1006B00000405D464E689C43F60300D51C432C6009
:1006C000DEF8004075464E689C43B60300D51C43D7
:1006D0002C600C4D08352C684E689C43F60200D502
:1006E0001C432C60074D0C352C684E689C43B602A9
:1006F00000D51C432C60521C102AFFF45DAFBDE8EE
:10070000F88F0000003C01404438024000300140B6
:10071000000002400004024000080240000C0240B9
:10072000001002400069084000D001207047426973
:100730004A40426170470AB1816170470904FBE792
:1007400001488068704700009800002002488168D6
:100750000278114481607047980000200B4810B562
:10076000016841F400710160016841F48061016039
:10077000016841F480710160032000F08BF80020D3
:1007800000F006F800F024F8002010BD003C024004
:1007900070B50D4D04464FF47A712878B1FBF0F036
:1007A0000A490968B1FBF0F000F00FFB48B9102CC2
:1007B00007D200222146501E00F04CF800206C6049
:1007C00070BD012070BD000098000020A400002032
:1007D0001F4808B5016841F480410160006800F4D9
:1007E000804000901A48001F016841F0805101606C
:1007F000006800F080500090072000F04BF80022C5
:1008000011466FF00B0000F025F8002211466FF042
:100810000A0000F01FF8002211466FF0090000F0F6
:1008200019F800221146501F00F014F8002211465A
:10083000101F00F00FF800221146901E00F00AF879
:100840000022BDE808401146501E00F003B8000029
:1008500044380240F0B40E4B1B680C46C3F302232D
:10086000C3F10705042D00D90425191D072901D25C
:10087000002300E0DB1E012606FA05F1491E214097
:1008800099409E40761E16403143F0BC00F0AEBC4D
:100890000CED00E0064900F0070208684FF6FF0380
:1008A000184040EA0220034A1043086070470000E5
:1008B0000CED00E00000FA052DE9F0470E460500BA
:1008C00065D0DFF81481D8F80000F7B200F00F000F
:1008D000B04207D288F80070D8F8000000F00F008E
:1008E000B04254D128683D4C810712D5400703D54A
:1008F000206840F4E05020602878000703D5206885
:1009000040F4604020602068A96820F0F0000843AF
:1009100020602878C0072DD0304968680839012840
:1009200012D0022813D0032811D0096889070029A2
:100930002DDA216821F0030101432160FFF700FF58
:10094000814641F2883A0EE009688903EFE70968B9
:100950008901ECE7FFF7F4FEA0EB0901514502D94C
:100960000320BDE8F0872068696800F00C00B0EB58
:10097000810FEFD1D8F80010404601F00F01B142CD
:1009800007D90770006800F00F00B04201D00120C5
:10099000E7E72878400705D52068E96820F4E050AB
:1009A000084320602878000706D52068296920F4CC
:1009B000604040EAC100206000F03CF82168084A2D
:1009C000C1F30311515CC840064908600020FFF7DD
:1009D000DFFE0020C5E70000003C0240083802406E
:1009E000C41A0008A40000200148006870470000F5
:1009F000A40000200448054900680968044AC1F3BE
:100A00008221515CC8407047A40000200838024091
:100A1000D41A00080448054900680968044AC1F36B
:100A20004231515CC8407047A400002008380240A1
:100A3000D41A0008154810B5006810F00C021448CC
:100A400013D04110042A0FD0082A0ED10F4C241FB6
:100A50002268236802F03F025B0207D52068C0F3DA
:100A60008810A0FB010106E0084610BD2168C1F313
:100A70008811A1FB00010023FFF7AAFB2168C1F345
:100A80000141491C4900B0FBF1F010BD083802409B
:100A90000024F4002DE9F84F050076D02878DFF81F
:100AA000F8B2BE4CC00749D0DBF800105846C1F37D
:100AB0008101012908D00068C0F3810002280AD111
:100AC000201D0068400206D52068800336D568687E
:100AD0000028E2D032E06868B0F5803F10D0B0F571
:100AE000A02F206810D020F480302060206820F4EF
:100AF000802020606868A0B1FFF722FE06460CE067
:100B0000206840F48030F4E740F480202060F7E76C
:100B1000FFF716FE801B642873D820688003F7D582
:100B20000CE0FFF70DFE064605E000BFFFF708FEEC
:100B3000801B6428F0D820688003F7D42878DFF879
:100B4000608280074FF000093ED5DBF80010584660
:100B500011F00C0F09D00068C0F3810002280BD1FE
:100B60008D48001F0068400206D42068800715D514
:100B7000E868012809D111E0E868B8B10120C8F897
:100B80000000FFF7DDFD064605E002E1FFF7D8FDB6
:100B9000801B0228C0D820688007F7D52068296903
:100BA00020F0F80040EAC10020600DE0C8F8009095
:100BB000FFF7C6FD064604E0FFF7C2FD801B0228D2
:100BC0001FD820688007F7D42878000722D5724EF6
:100BD000744869696C3671B101210160FFF7B0FD9D
:100BE000074604E0FFF7ACFDC01B022809D83068B7
:100BF0008007F7D50EE0C0F80090FFF7A1FD07468B
:100C000005E083E0FFF79CFDC01B02287ED830681A
:100C10008007F7D42878400768D5DFF87CA1002743
:100C20000AF1380ADAF80000C0000BD4DAF8001034
:100C300041F08051CAF80010DAF80000012700F0F6
:100C400080500090584E3068C00510D4306840F491
:100C500080703060FFF774FD009005E0FFF770FDD5
:100C60000099401A022851D83068C005F6D54A4E7E
:100C7000A868683601280FD00528306810D020F009
:100C800001003060306820F004003060A868B8B11E
:100C9000FFF756FD00900FE0306840F00100F4E7E8
:100CA00040F004003060F7E7FFF74AFD0099411A71
:100CB00041F28830814264D830688007F4D50EE074
:100CC000FFF73EFD009007E0FFF73AFD0099411A5B
:100CD00041F28830814254D830688007F4D42FB173
:100CE000DAF8001021F08051CAF80010A869C0B3EA
:100CF000DBF80010C1F3810102294AD002284846DE
:100D000007D0C8F86000FFF71BFD00E039E005469A
:100D10003AE04746C8F86000FFF712FD064604E0D7
:100D2000FFF70EFD801B02282BD820688001F7D426
:100D3000D5E907010843A96A1C4A490802EB0141A9
:100D40006A6A41EA8211084395F82C1040EA016171
:100D50001148001F016001203866FFF7F1FC0546CD
:100D600005E014E0FFF7ECFC401B022809D82068DE
:100D70008001F7D50BE000BFFFF7E2FC401B022823
:100D800002D90320BDE8F88F20688001F4D4002048
:100D9000F8E70120F6E7000008380240003802407A
:100DA00000004742800E4742007000400000FFFFF5
:100DB0004FF0E0210428086903D020F00400086106
:100DC000704740F00400FAE7704710B5401EB0F1DC
:100DD000807F01D3012010BD4FF0E02460610F211E
:100DE000601700F003FA0020A061072020610020B6
:100DF00010BD10B5FFF7E8FF10BD70B5040004D0BA
:100E000094F83900002510B106E0012070BD84F887
:100E10003850204600F022F8242084F83900206859
:100E2000C16821F40051C160204600F071FA2068C9
:100E3000016921F4904101612068416921F02A0192
:100E400041612068C16841F40051C160E563202020
:100E500084F8390084F83A00002070BD70B5154E52
:100E600001680222012303240725134886B0B142FA
:100E70000AD112490E6846F010060E60096801F0AA
:100E80001001059161020DE00D4EB1420FD10B49E9
:100E9000091F0E6846F400360E60096801F400313F
:100EA00005910C218DE83E006946FFF777FB06B0FF
:100EB00070BD0000001001400000024044380240B4
:100EC000004400402DE9F843044690F83A00994662
:100ED00016460D4620284FD195B18EB194F83800B2
:100EE000012849D0012084F838000027E763222038
:100EF00084F83A00FFF724FCA6858046E68531E0B9
:100F00000120BDE8F883E08D401EE085A0684346DF
:100F1000B0F5805F4FF000024FF020012046CDF881
:100F2000009004D000F04AFB98B10320E9E700F0FC
:100F300045FB0028F9D1206900282068406803D0CB
:100F4000C1B225F8011B0DE0C0F3080125F8021B12
:100F500008E0206900282068406801D000F07F0088
:100F600005F8010BE08D0028CDD1202084F83A004F
:100F700084F838700020C4E70220C2E72DE9F84366
:100F8000044690F839001F4616460D46202850D1D9
:100F9000A5B19EB194F8380001284AD0012084F808
:100FA00038004FF00008C4F83C80212084F8390054
:100FB000FFF7C6FBA6848146E68426E00120BDE853
:100FC000F883E08C401EE084A0684B46B0F5805F5B
:100FD0004FF000024FF080012046009703D000F050
:100FE000EDFAE8B90DE000F0E9FAC8B928882168FF
:100FF000C0F308004860206908B16D1C05E0AD1C15
:1010000003E0216815F8010B4860E08C0028D8D176
:101010004B46002240212046009700F0CFFA08B14D
:101020000320CCE7202084F8390084F838800020A1
:10103000C5E70220C3E700002DE9F04F644887B000
:101040000024016841F010010160016801F0100105
:101050000591016841F004010160016801F004019B
:101060000591016841F080010160016801F0800193
:101070000591016841F001010160016801F0010181
:101080000591016841F002010160016801F002016F
:101090000591016841F00801016000684D4F00F0C2
:1010A00008000590002208213846FFF744FB012282
:1010B00011464948FFF73FFB4FF2100A0022514604
:1010C0004648FFF738FB4FF00409CDE90094694624
:1010D00038460294FFF762FA082601250096CDE90A
:1010E0000154694638460394FFF758FADFF8F08058
:1010F0003220CDE90008694602943846FFF74EFADF
:101100000095CDE90154694633480394FFF746FA48
:1011100000960226CDE901640527CDE9034769461B
:101120002D48FFF73BFA0095DFF8B8B0CDE9018410
:1011300069465846FFF732FA10200090CDE9016465
:101140004FF00608CDE9034869465846FFF726FAEE
:10115000E020CDE900060320CDE90240694604976E
:101160005846FFF71BFAB8020090CDE90164CDE9BB
:1011700003471D4F69463846FFF710FACDF800A027
:10118000CDE90154694615480394FFF707FA4FF477
:10119000A4500090CDE90164CDE9034869460E48AA
:1011A000FFF7FCF92020CDE9000469460B480294C2
:1011B000FFF7F4F9680200901220CDE90105CDE9AE
:1011C000034969463846FFF7E9F907B0BDE8F08FF3
:1011D000303802400010024000080240000C02407B
:1011E0000000121000000240000402400907090E2E
:1011F000002806DA00F00F0000F1E02080F8141D4E
:10120000704700F1E02080F80014704710B5FFF738
:101210009DFABDE81040FFF7ECBD000030B5254851
:1012200093B00024016841F080510160006800F033
:10123000805011902048016841F4404101600068ED
:10124000C02100F440401190012003901020049030
:1012500008200225CDE9080100950421CDE90A10F6
:10126000CDE906546846FFF715FC00B1FEE70F20F4
:10127000CDE90C054FF4A050CDE90E404FF480505D
:10128000109003210CA8FFF717FB00B1FEE7FFF752
:10129000ABFB4FF47A71B0FBF1F0FFF796FD042041
:1012A000FFF786FD00221146501EFFF7D3FA13B058
:1012B00030BD000040380240007000401048016816
:1012C00041F4700101600F48016841F001010160C3
:1012D0000C4A00210832116002680B4B1A40026070
:1012E000031D0A4A1A60026822F48022026005483F
:1012F0000C300160024958068039086070470000D0
:1013000088ED00E000380240FFFFF6FE10300024B8
:101310002DE9F04104460068016921F44052E1687A
:10132000114301612168C86849F20C629043236946
:10133000A268E5691A4363692B431A430243CA60F2
:101340002168486920F44072A06910434861E1694E
:101350006425B1F5004F9748974A21684FF032084D
:101360003FD0914201D081427CD1FFF753FB00EB8B
:10137000C00101EB001061688900B0FBF1F6FFF7D6
:1013800049FB00EBC00101EB001061688900B0FB74
:10139000F1F0B0FBF5F06FF01801484306EB800167
:1013A00008EB0110B0FBF5F000F0F006FFF732FBA0
:1013B00000EBC00101EB001061688900B0FBF1F0A7
:1013C000B0FBF5F006EB0016FFF724FB00EBC001C5
:1013D00001EB001061688900B0FBF1F7FFF71AFB21
:1013E000D2E0914201D081423DD1FFF713FB00EBE7
:1013F000C00101EB001061684900B0FBF1F0B0FBE7
:10140000F5F00601FFF706FB00EBC00101EB001051
:1014100061684900B0FBF1F7FFF7FCFA00EBC0018F
:1014200001EB001061684900B0FBF1F0B0FBF5F092
:101430006FF01801484307EB800108EBC100B0FBD7
:10144000F5F000F0F80006EB4006FFF7E3FA00EBDA
:10145000C00101EB001061684900B0FBF1F7FFF734
:10146000D9FA3CE055E0FFF7C5FA00EBC00101EB0B
:10147000001061684900B0FBF1F0B0FBF5F0060127
:10148000FFF7B8FA00EBC00101EB001061684900FA
:10149000B0FBF1F7FFF7AEFA00EBC00101EB001073
:1014A00061684900B0FBF1F0B0FBF5F06FF0180196
:1014B000484307EB800108EBC100B0FBF5F000F0FA
:1014C000F80006EB4006FFF795FA00EBC00101EBD0
:1014D000001061684900B0FBF1F7FFF78BFA00EBF1
:1014E000C00101EB001061684900B0FBF1F0B0FBF6
:1014F000F5F06FF01801484307EB800108EBC100DD
:10150000B0FBF5F000F00700216830448860BDE8CA
:10151000F081FFF76FFA00EBC00101EB001061688A
:101520008900B0FBF1F6FFF765FA00EBC00101EBB3
:10153000001061688900B0FBF1F0B0FBF5F06FF0CE
:101540001801484306EB800108EB0110B0FBF5F0F1
:1015500000F0F006FFF74EFA00EBC00101EB0010BF
:1015600061688900B0FBF1F0B0FBF5F006EB001606
:10157000FFF740FA00EBC00101EB00106168890041
:10158000B0FBF1F7FFF736FA00EBC00101EB0010FA
:1015900061688900B0FBF1F0B0FBF5F06FF0180165
:1015A000484307EB800108EB0110B0FBF5F000F0B9
:1015B0000F00A9E700140140001001402DE9F0419F
:1015C000984617460E460446069D1DE0681C1BD033
:1015D0002DB1FFF7B5F8A0EB0800A84214D9206898
:1015E000C16821F4D071C1602068416921F0010116
:1015F0004161202084F8390084F83A00002084F802
:1016000038000320BDE8F0812068006836EA000059
:1016100004D00020B842D9D00020F3E70120F9E738
:1016200002E008C8121F08C1002AFAD170477047AB
:10163000002001E001C1121F002AFBD17047000009
:1016400070B5234C88B02178491C6018091F50F8E8
:10165000042C204600F0DEF920B108B0BDE870404F
:1016600000F086B92078012100F072F9A178E278C3
:1016700001242503174EFF2924D000200090C1F13A
:101680000800C0B2824200D90246CDE9021201949C
:10169000FEF76EFF0220049006A96846FEF712FFCF
:1016A0008DF81400FEF75AFF29463046FFF73FF841
:1016B00007484FF0FF33012205A94038FFF75EFCD1
:1016C00008B070BD29463046FFF731F80094DEE7D8
:1016D00028010020000C024038B5114C2178491C2B
:1016E0006018091F50F8042C204600F093F918B137
:1016F000BDE8384000F03CB90A4800680221C0F358
:101700000B00ADF80000207800F022F904484FF0FB
:10171000FF33022269464038FFF730FC38BD000035
:1017200028010020002004E010B5114C2178491C4C
:101730006018091F50F8042C204600F06BF940B1E6
:1017400000F016F9BDE810404FF400510948FEF7CB
:10175000EEBF20780A2100F0FBF805480A22BDE818
:1017600010404FF0FF3304494038FFF707BC00003A
:1017700028010020000C02408E00002038B5134CD8
:101780002178491C6018091F50F8042C204600F0ED
:1017900041F918B1BDE8384000F0EAB80C480068DB
:1017A0000121000A8DF80000207800F0D1F80748E8
:1017B0004FF0FF33012269464038FFF7DFFB4FF45B
:1017C00000510448FEF7B3FF38BD00002801002097
:1017D00000C0FF1F000C024010B58AB0202214A1E7
:1017E0006846FEF726FD1A4C2078401CC1B26018EE
:1017F000091F50F8042C204600F00CF918B100F035
:10180000B7F80AB010BD0121207800F0A1F84FF41C
:1018100080511048FEF78BFF01208DF82000831EB9
:1018200002460B4808A94038FFF7A8FBE9E700008B
:10183000496E7369646520676574207665727369A3
:101840006F6E2066756E6374696F6E0A000000002B
:1018500028010020000C024038B5134C2178491CA7
:101860006018091F50F8042C204600F0D3F818B176
:10187000BDE8384000F07CB82078042100F068F81A
:10188000D4F80200009008484FF0FF330422694664
:101890004038FFF773FB4FF480510448FEF747FFD1
:1018A0000098804738BD000028010020000C02404D
:1018B00010B50D4C2178491C6018091F50F8042CF4
:1018C000204600F0A7F818B1BDE8104000F050B86D
:1018D0002078012100F03CF8BDE810404FF4805121
:1018E0000248FEF724BF000028010020000C02403F
:1018F00038B50A231A2213491348FFF73FFB114951
:101900000A231C221A311048FFF738FB0F4C60687D
:101910000C490A23242236310B48FFF72FFB60685D
:1019200000904FF0FF33042269460748FFF726FB7B
:1019300004490A232C225A310348FFF71FFB009861
:10194000804738BD08000020E80000200080000823
:1019500008B5A5208DF800008DF801104FF0FF3379
:10196000022269460148FFF709FB08BDE800002094
:1019700008B575208DF800004FF0FF33012269464D
:101980000148FFF7FBFA08BDE80000201F4C4FF0AC
:10199000FF35C8211D48FEF765FC1C492B46012276
:1019A000A1F14000FFF78EFA184822782B46611CFF
:1019B0004038FFF787FA607851380728E9D2DFE826
:1019C00000F0040D1115191D21001048FFF704FF48
:1019D0004FF400510E48FEF7AAFEDAE70B48FFF776
:1019E000A3FED6E70948FFF777FED2E70748FFF7DF
:1019F000C5FECEE70548FFF72FFFCAE70348FFF70C
:101A00001FFEC6E70148FFF753FFC2E72801002089
:101A1000000C024030B50024234602E0C55C5B1C8C
:101A20002C448B42FAD3944201D1002030BD0120D6
:101A300030BD000070B5FEF791FEFFF7EFFBFFF73A
:101A4000FBFA1B4819494FF4E13500240160C0E955
:101A500001540C26C460C0E904468461C461FFF7E8
:101A6000CCF900B1FEE71449124808600846FEF7B9
:101A700001FD00B1FEE70E48104940380160C0E9A1
:101A80000154C460C0E904468461C461FFF7B5F93C
:101A900000B1FEE701210A48FEF744FE18B1FFF746
:101AA00027FF002070BDFFF771FF000000440040D9
:101AB000E80000200030024000000020001001403B
:101AC00000000240000000000000000001020304CA
:101AD000060708090000000001020304FC1A0008C0
:101AE00000000020A800000020160008A41B000829
:101AF000A800002068050000301600080000000063
:101B0000000000005374617274204F6620426F6FB2
:101B1000746C6F61646572204A756D700A00436F62
:101B20007079696E672052414D204164647265731B
:101B300073202D3E204D53500A00436F7079696E1B
:101B400067207468652072657365742068616E64CF
:101B50006C65727320616464726573730A0043611B
:101B60006C6C696E672072657365742066756E6350
:101B700074696F6E206F6620757365722061707076
:101B80006C69636174696F6E0A0051525354555603
:101B90005758595A010000001000000000000000D2
:041BA0000024F40029
:040000050800019955
:00000001FF
